:020000040000FA
:100000000C9465000C948D000C948D000C948D0064
:100010000C948D000C948D000C948D000C948D002C
:100020000C948D000C948D000C948D000C948D001C
:100030000C948D000C948D000C948D000C948D000C
:100040000C9453020C948D000C948D000C948D0034
:100050000C948D000C948D000C948D000C948D00EC
:100060000C948D000C948D000000000025002800E9
:100070002B000000000023002600290000000008DB
:10008000000201000003040700000000000000005F
:1000900000000000240027002A00010204081020AC
:1000A000408001020408102001020408102004040A
:1000B0000404040404040202020202020303030310
:1000C00003030001020304050B0611241FBECFEF3A
:1000D000D8E0DEBFCDBF21E0A6E0B1E001C01D92B7
:1000E000A433B207E1F711E0A0E0B1E0E6E7FCE0FD
:1000F00002C005900D92A630B107D9F710E0C5E611
:10010000D0E004C02197FE010E943306C436D10717
:10011000C9F70E949D020C9439060C9400008330AC
:1001200081F028F4813099F08230A9F00895873069
:10013000A9F08830C9F08430B1F4809180008F7DBF
:1001400003C0809180008F7780938000089584B5EC
:100150008F7784BD089584B58F7DFBCF8091B000EB
:100160008F778093B00008958091B0008F7DF9CF94
:10017000CF93DF93282F30E0F901E458FF4F8491AB
:10018000F901E656FF4FD491F901E255FF4FC491B2
:10019000CC23A1F081110E948F00EC2FF0E0EE0F34
:1001A000FF1FEE58FF4FA591B491EC91ED2381E034
:1001B00090E009F480E0DF91CF91089580E090E035
:1001C000FACF1F93CF93DF93282F30E0F901E45843
:1001D000FF4F8491F901E656FF4FD491F901E255A2
:1001E000FF4FC491CC23A9F0162F81110E948F00DC
:1001F000EC2FF0E0EE0FFF1FE859FF4FA591B491EF
:100200008FB7F894EC91111108C0D095DE23DC93E0
:100210008FBFDF91CF911F910895DE2BF8CF682F0C
:10022000809118010E94E10080913001909131018C
:100230008230910538F0880F991F880F991F059714
:100240000197F1F7089581E00C940F0120911601B8
:100250003091170140911801509119012417350769
:1002600021F0682F822F0C94E1000895CF93DF9343
:1002700090E0FC01E656FF4F249182559F4FFC0110
:1002800084918823D1F090E0880F991FFC01E057FA
:10029000FF4FA591B491FC01E859FF4FC591D4914E
:1002A000623071F49FB7F8943C91822F809583233C
:1002B0008C93E8812E2B28839FBFDF91CF910895E7
:1002C0008FB7F894EC912E2B2C938FBFF6CF3FB7BE
:1002D000F89480910C0190910D01A0910E01B091C4
:1002E0000F0126B5A89B05C02F3F19F00196A11D4F
:1002F000B11D3FBFBA2FA92F982F8827BC01CD0170
:10030000620F711D811D911D42E0660F771F881FCE
:10031000991F4A95D1F708958F929F92AF92BF92FD
:10032000CF92DF92EF92FF924B015C010E94670136
:100330006B017C010E9467016C197D098E099F0980
:10034000683E734081059105A8F321E0821A910867
:10035000A108B10888EEC80E83E0D81EE11CF11C8C
:1003600081149104A104B10429F7FF90EF90DF906C
:10037000CF90BF90AF909F908F9008952FB7F89433
:10038000609108017091090180910A0190910B011F
:100390002FBF08958EBD00000DB407FEFDCF8EB5B2
:1003A00008950F931F9300911A0110911B01209142
:1003B0001C0130911D0140E052E16AE770E080E0ED
:1003C000041715072607370740F476956795579564
:1003D00047958F5F8630A1F787E0982F906A9695B2
:1003E000809581709CBD8DBD80E01F910F910C9414
:1003F0000F01CF93C82F0E94D1018C2F80620E94E1
:10040000CA0180931E01CF910C942301CF93C82F72
:100410000E94D1018C2F0E94CA0180931E018FEF90
:100420000E94CA01C82F0E9423018C2FCF910895EA
:100430000F931F93CF93182FC62F0E94D101812FA6
:1004400080620E94CA0180931E0100E011E0C15049
:1004500030F0F80181918F010E94CA01F8CFCF914D
:100460001F910F910C9423010E94D10180E50E94FD
:10047000CA0180931E0183E70E94CA010C942301E4
:10048000CF93DF93D82FC62F0E94D1018D2F80628A
:100490000E94CA0180931E018C2F0E94CA01DF9125
:1004A000CF910C9423011F920F920FB60F9211243B
:1004B0002F933F938F939F93AF93BF9380910801A6
:1004C00090910901A0910A01B0910B0130910701AF
:1004D00023E0230F2D3758F50196A11DB11D209360
:1004E00007018093080190930901A0930A01B0933A
:1004F0000B0180910C0190910D01A0910E01B09122
:100500000F010196A11DB11D80930C0190930D0167
:10051000A0930E01B0930F01BF91AF919F918F9166
:100520003F912F910F900FBE0F901F90189526E8C6
:10053000230F0296A11DB11DD2CFCF93DF93CDB76C
:10054000DEB728970FB6F894DEBF0FBECDBF789404
:1005500084B5826084BD84B5816084BD85B58260C8
:1005600085BD85B5816085BD80916E008160809379
:100570006E001092810080918100826080938100E2
:1005800080918100816080938100809180008160F2
:10059000809380008091B10084608093B10080914D
:1005A000B00081608093B00080917A008460809375
:1005B0007A0080917A00826080937A0080917A003C
:1005C000816080937A0080917A00806880937A00BD
:1005D0001092C1002FB72983F894809110018111E6
:1005E00027C0E8EBF0E08491E4EAF0E09491E82F92
:1005F000F0E0EE0FFF1FE057FF4FA591B491EC9193
:10060000E92321F461E08AE00E94E10061E08AE0F0
:100610000E9436018CB580618CBD8CB580648CBD28
:1006200061E08DE00E94360161E08BE00E943601BE
:10063000809110018F5F8093100139813FBF8091BD
:100640001601909117018F3F980709F496C02091E9
:100650001801309119012F3F320709F48EC082171B
:10066000930741F061E00E94360161E0809118013A
:100670000E94360180E00E94260181E00E940F0165
:1006800065E070E080E090E00E948C016FE584E01E
:100690000E94400285E590E0A0E0B0E080932C014C
:1006A00090932D01A0932E01B0932F0167E086E077
:1006B0000E9440028DE10E94060289830E9434025A
:1006C0008DE10E94060291E02981281390E0909329
:1006D0002601882349F03981381302C00E94340270
:1006E00060E08DE10E9440021092280160E08CE100
:1006F0000E94400210922A016FE381E00E944002B2
:1007000063E082E00E94400280E280931F0141E1A9
:10071000498360911F0189810E94400259815F5F76
:1007200059835731B1F763E083E00E94400285E0CE
:10073000809329016CE40E94400260E787E00E94F8
:10074000400282EE0E94F90181EE0E94F9016CE004
:1007500080E00E94400280E00E9406028093250112
:1007600081FD0BC0682F62606093250180E00E94CC
:1007700040028BE19EE40197F1F786E00E940602B9
:10078000887F682F636086E00E94400260E084E01A
:100790000E9440026FE685E00E94400260912901BC
:1007A0008AE00E9418026091290180E10E941802EB
:1007B00080E00E94260180912C0190912D018230D1
:1007C000910538F0880F991F880F991F0597019799
:1007D000F1F780912801882319F081EE0E94F90138
:1007E000609125016E7F6093250180E00E944002A8
:1007F00082E00E940602E2ECF0E0E49161E070E049
:1008000001C0660FEA95EAF7682B82E00E94400279
:1008100062E082E10E94360162E086E00E943601D9
:1008200062E080E10E94360162E08FE00E943601C2
:1008300062E087E00E94360162E08EE00E943601AD
:1008400062E089E00E94360162E088E00E943601A1
:1008500061E083E10E94360161E085E00E9436019B
:1008600061E081E10E94360160E083E10E94E100E5
:1008700060E085E00E94E10060E081E10E94E1002B
:10088000812C912C5401C12CD12C7601312C212C9E
:10089000412C512C32011A82198218861F8282E162
:1008A0000E94B800892B09F0AAC08F81882309F41F
:1008B00089C091E09F8386E00E94B800892B09F0EF
:1008C000BDC04885442309F49CC051E0588780E1AD
:1008D0000E94B800892B09F0C3C029812111B0C042
:1008E0008091130184608093130161E081E10E9493
:1008F000E1000E94BE012B013C011A8231E03983E4
:100900008FE00E94B800892B09F0B8C080911301D4
:1009100088608093130187E00E94B800892B09F05A
:10092000B1C0809113018061809313018EE00E9419
:10093000B800892B09F0AAC08091130180628093CE
:10094000130189E00E94B800892B09F0A3C08091AF
:10095000130180648093130188E00E94B800892B02
:1009600009F09CC0809113018068809313018091ED
:10097000130180FF97C00E94BE016C197D098E098A
:100980009F096B3471408105910508F48BC00E946A
:10099000BE016B017C0131E02326622D83E10E94C0
:1009A000E1008091130181FD8AC08091130181FDD6
:1009B0009CC060E085E00E94E100812C912C5401F4
:1009C000312C93C08091130180FF08C080911301E6
:1009D0008E7F8093130121E02F836DCF80911301CF
:1009E0008160809313018091130181FF62CF809118
:1009F00013018D7F8093130131E03F835CCF1F8211
:100A00005ACF8091130181FF08C0809113018D7F1F
:100A10008093130181E088875ACF8091130182600F
:100A2000809313018091130180FF4FCF80911301B8
:100A30008E7F8093130191E0988749CF188647CF26
:100A40000E94BE01641975098609970941E04A832D
:100A5000693572408105910508F052CF1A8250CF56
:100A60008A81811109C0809113018B7F80931301CA
:100A700060E081E10E94E100198242CF8091130180
:100A8000877F47CF809113018F7E4ECF80911301D6
:100A90008F7D55CF809113018F7B5CCF80911301A7
:100AA0008F7763CF8091130180FD7BCF60E083E17E
:100AB0000E94E100C12CD12C7601212C72CF0E9422
:100AC000BE01681979098A099B096B347140810557
:100AD000910508F46ACF0E94BE014B015C0151E010
:100AE0003526632D85E00E94E10080912A0110E007
:100AF00001E0811106C010911F01012F111101E0C9
:100B0000101B0E94D10180EA0E94CA0180931E013D
:100B1000002321F0809113010E94CA01115080E04E
:100B20001F3FD1F70E94230181E00E9426010E940D
:100B3000BE016B837C838D839E838FEF0E94F901BE
:100B400080911E018073E1F40E94BE012B813C81E3
:100B50004D815E81621B730B840B950B60367105B2
:100B60008105910550F331E030932B018091110103
:100B700090911201019690931201809311010FC080
:100B800080E00E94260160E787E00E944002809199
:100B90001E0184FD3CC0109212011092110180913F
:100BA000110190911201893E93400CF478CE03E03C
:100BB00010E061E083E10E94E10061E085E00E94D5
:100BC000E10061E081E10E94E10064E670E080E024
:100BD00090E00E948C0160E083E10E94E10060E00F
:100BE00085E00E94E10060E081E10E94E10064E6AE
:100BF00070E080E090E00E948C0101501109C9F67C
:100C000010921301109212011092110148CE81EE40
:100C10000E94F901ABCFE4E1F1E084E090E093833E
:100C2000828383E090E09583848380E896E9A8E955
:100C3000B0E086839783A087B18780E28387128A9A
:100C4000138A85E0858B81E0868B85E090E0A0E0CB
:100C5000B0E0848F958FA68FB78F86E091E0918367
:100C6000808314860895EE0FFF1F0590F491E02D08
:0C0C70000994F894FFCF30303030310090
:107800000C94343C0C94513C0C94513C0C94513CE1
:107810000C94513C0C94513C0C94513C0C94513CB4
:107820000C94513C0C94513C0C94513C0C94513CA4
:107830000C94513C0C94513C0C94513C0C94513C94
:107840000C94513C0C94513C0C94513C0C94513C84
:107850000C94513C0C94513C0C94513C0C94513C74
:107860000C94513C0C94513C11241FBECFEFD8E036
:10787000DEBFCDBF11E0A0E0B1E0ECE9FFE702C060
:1078800005900D92A230B107D9F712E0A2E0B1E065
:1078900001C01D92AD30B107E1F70E942D3D0C945F
:1078A000CC3F0C94003C982F959595959595959582
:1078B000905D8F708A307CF0282F295A8091C0000B
:1078C00085FFFCCF9093C6008091C00085FFFCCF60
:1078D0002093C6000895282F205DF0CF982F809127
:1078E000C00085FFFCCF9093C6000895EF92FF92F1
:1078F0000F931F93EE24FF2487018091C00087FD22
:1079000017C00894E11CF11C011D111D81E4E8164B
:1079100082E4F8068FE0080780E0180770F3E09132
:107920000401F091050109958091C00087FFE9CF1E
:107930008091C6001F910F91FF90EF9008950E94D3
:10794000763C982F8091C00085FFFCCF9093C600B5
:1079500091362CF490330CF09053892F089597555D
:10796000892F08951F930E949F3C182F0E949F3CCF
:107970001295107F810F1F9108951F93182F882350
:1079800021F00E94763C1150E1F71F9108951F935A
:10799000182F0E94763C803249F0809103018F5F5E
:1079A000809303018530C1F01F9108958091C0003C
:1079B00085FFFCCF84E18093C6008091C00085FFE5
:1079C000FCCF1093C6008091C00085FFFCCF80E102
:1079D0008093C6001F910895E0910401F091050184
:1079E00009951F9108950E94763C803241F0809164
:1079F00003018F5F80930301853081F008958091AA
:107A0000C00085FFFCCF84E18093C6008091C00058
:107A100085FFFCCF80E18093C6000895E0910401CA
:107A2000F09105010995089540E951E08823A1F0FE
:107A30002D9A28EE33E0FA013197F1F721503040CA
:107A4000D1F72D9828EE33E0FA013197F1F7215064
:107A50003040D1F7815061F708953F924F925F9285
:107A60006F927F928F929F92AF92BF92CF92DF924E
:107A7000EF92FF920F931F93CF93DF93000080E16B
:107A80008093C4001092C50088E18093C10086E015
:107A90008093C2005098589A259A81E00E94143D24
:107AA00024E1F22E9EE1E92E85E9D82E0FE0C02ECA
:107AB00010E1B12EAA24A394B1E49B2EA6E58A2E50
:107AC000F2E57F2EE0E26E2E79E4572E63E5462E36
:107AD00050E5352E0E94763C8033B1F18133B9F107
:107AE000803409F46FC0813409F476C0823409F41B
:107AF00085C0853409F488C0803531F1823521F1A3
:107B0000813511F1853509F485C0863509F48DC0BC
:107B1000843609F496C0843709F403C1853709F423
:107B200072C1863709F466C0809103018F5F80932C
:107B30000301853079F6E0910401F0910501099582
:107B40000E94763C803351F60E94F33CC3CF0E94E2
:107B5000763C803249F78091C00085FFFCCFF092DF
:107B6000C6008091C00085FFFCCF9092C600809136
:107B7000C00085FFFCCF8092C6008091C00085FFC9
:107B8000FCCF7092C6008091C00085FFFCCF609250
:107B9000C6008091C00085FFFCCF5092C600809146
:107BA000C00085FFFCCF4092C6008091C00085FFD9
:107BB000FCCF3092C6008091C00085FFFCCFB09210
:107BC000C60088CF0E94763C863808F4BDCF0E945C
:107BD000763C0E94F33C7ECF0E94763C803809F4CC
:107BE0009CC0813809F40BC1823809F43CC1883942
:107BF00009F48FC080E00E94C73C6CCF84E10E94F2
:107C0000BD3C0E94F33C66CF85E00E94BD3C0E94D3
:107C1000F33C60CF0E94763C809306010E94763C44
:107C2000809307010E94F33C55CF0E94763C80333D
:107C300009F41DC183E00E94BD3C80E00E94C73C66
:107C400049CF0E94763C809309020E94763C809343
:107C5000080280910C028E7F80930C020E94763C79
:107C6000853409F415C18091080290910902892B8D
:107C700089F000E010E00E94763CF801E85FFE4FDA
:107C800080830F5F1F4F80910802909109020817AF
:107C9000190788F30E94763C803209F045CF809125
:107CA0000C0280FF01C16091060170910701660F0F
:107CB000771F7093070160930601A0910802B091AD
:107CC00009021097C9F0E8E0F1E09B01AD014E0F09
:107CD0005F1FF999FECF32BD21BD819180BDFA9A17
:107CE000F99A2F5F3F4FE417F50799F76A0F7B1F4B
:107CF00070930701609306018091C00085FFFCCF5F
:107D0000F092C6008091C00085FFFCCFB092C60003
:107D1000E1CE83E00E94C73CDDCE82E00E94C73CFA
:107D2000D9CE0E94763C809309020E94763C8093D3
:107D300008028091060190910701880F991F909386
:107D40000701809306010E94763C853409F4A6C0A1
:107D500080910C028E7F80930C020E94763C8032D0
:107D600009F0B8CE8091C00085FFFCCFF092C6002C
:107D7000609108027091090261157105B9F140E046
:107D800050E080910C02A82FA170B82FB27011C0E2
:107D9000BB2309F45CC0E0910601F0910701319624
:107DA000F0930701E09306014F5F5F4F46175707B7
:107DB000E8F4AA2369F3F999FECF209106013091E6
:107DC000070132BD21BDF89A90B58091C00085FFB2
:107DD000FCCF9093C6002F5F3F4F30930701209355
:107DE00006014F5F5F4F4617570718F38091C00099
:107DF00085FDE5CE8091C00085FFF8CFE0CE81E023
:107E00000E94C73C67CE0E94763C803209F08CCE3F
:107E10008091C00085FFFCCFF092C6008091C00029
:107E200085FFFCCFE092C6008091C00085FFFCCFAB
:107E3000D092C6008091C00085FFFCCFC092C600E2
:107E40008091C00085FFFCCFB092C60043CEE09188
:107E50000601F091070194918091C00085FFFCCF4D
:107E60009093C6009CCF80E10E94C73C33CE0E9415
:107E7000763C0E94763C182F0E94763C112309F430
:107E800083C0113009F484C08FE00E94C73C22CE29
:107E900080910C02816080930C02E5CE80910C02EF
:107EA000816080930C0259CF809107018823880F4D
:107EB000880B8A2180930B02809106019091070123
:107EC000880F991F90930701809306018091080203
:107ED00080FF09C080910802909109020196909359
:107EE000090280930802F894F999FECF1127E091D6
:107EF0000601F0910701C8E0D1E08091080290915D
:107F00000902103091F40091570001700130D9F34B
:107F100003E000935700E89500915700017001308D
:107F2000D9F301E100935700E89509901990009169
:107F3000570001700130D9F301E000935700E89534
:107F40001395103498F011270091570001700130FB
:107F5000D9F305E000935700E895009157000170B0
:107F60000130D9F301E100935700E895329602976A
:107F700009F0C7CF103011F00296E5CF112480919F
:107F8000C00085FFB9CEBCCE8EE10E94C73CA2CD19
:0E7F900085E90E94C73C9ECDF894FFCF80008B
:00000001FF
